:020000041000EA
:1000000000B5324B212058609868022188439860DF
:10001000D860186158612E4B002199600221596106
:100020000121F02299502B49196001219960352056
:1000300000F044F80222904214D00621196600F024
:1000400034F8196E01211966002018661A6600F04E
:100050002CF8196E196E196E052000F02FF8012189
:100060000842F9D1002199601B49196000215960AB
:100070001A491B48016001219960EB211966A021F2
:10008000196600F012F800219960164914480160C1
:100090000121996001BC002800D000471248134993
:1000A000086003C880F30888084703B5996A0420EC
:1000B0000142FBD001200142F8D103BD02B5186610
:1000C0001866FFF7F2FF186E186E02BD00000240BE
:1000D000000000180000070000035F00212200005C
:1000E000F4000018222000A00001001008ED00E03C
:1000F00000000000000000000000000074B24E7A12
:1001000000200420F7010010C3010010C5010010F9
:10011000C1010010C1010010C1010010C101001097
:10012000C1010010C1010010C1010010C701001081
:10013000C1010010C1010010C9010010CB01001065
:10014000CD010010CD010010CD010010CD01001037
:10015000CD010010CD010010CD010010CD01001027
:10016000CD010010CD010010CD010010CD01001017
:10017000CD010010CD010010CD010010CD01001007
:10018000CD010010CD010010CD010010CD010010F7
:10019000CD010010CD010010CD010010CD010010E7
:1001A000CD010010CD010010CD010010CD010010D7
:1001B000CD010010CD010010CD010010CD010010C7
:1001C00000BE00BE00BE00BE00BE00BEEFF3058054
:1001D000103800BEF2EB8871149F0010389F001099
:1001E0003402001090A31AE700201F49086006C8D7
:1001F00081F3088810471D48006800282FD10DA4FE
:100200000ECC002902D000F012F8F9E71849194A7B
:10021000002000E001C19142FCD1174988471749ED
:1002200088471749884700BEFDE701C901C29A42C5
:10023000FBD37047389F0010C0000020C811002079
:1002400040B00010000004200000042040B0001066
:10025000001004200010042000000000704709482E
:1002600003F04EFF0047000008ED00E0000000D062
:10027000C811002034210020112E00104D0D001057
:10028000D12D00105756000006005250ABB36053FA
:10029000F08F001006005250861C030200900010E0
:1002A000060052505422A29D0C900010050052509E
:1002B000DE65F46840B00010F8B5C046064807494E
:1002C000091A8B10C90FC91810B5491003D0044B77
:1002D000002B00D0984710BDC8110020C811002085
:1002E00000000000054B10B5002B03D00449054861
:1002F00000E000BFFFF7E2FF10BDC04600000000B5
:10030000AC1E00203084001010B5002905D0FA2260
:100310009200002303F086FF03E0FA21890003F036
:1003200043FF10BDF0B50B4E840023189B00002541
:100330009D5123189B00B44663449D60DD608D6829
:100340001D614D685D600B6813432418A400A35120
:10035000F0BDC04600000540002303604360836099
:1003600010334360014B83607047C046FFFF0000BD
:1003700083001B189B000B488446634400290CD063
:100380001020824000290AD00749186842400A40DC
:10039000802149010B431A6070470800F1E70349C7
:1003A000F3E7C0460C0005400000FFFFFFFF000020
:1003B00070B506000D1C081C04F0FCFA84B2002C79
:1003C00012D0200004F0CEFA011C281C04F0A9FA77
:1003D0008721C90504F0BFFA04F0ECFAC3B21B028E
:1003E00024041C43346070BD0023F8E710B50400FA
:1003F0001022002104F054FB80235B022360F823C9
:100400005B0263608023DB02A360C0231B03A36045
:10041000200010BD70B504000D00FFF7E7FFEA1CD7
:10042000636809490B40ED012B43120313436360DA
:10043000E268D200D208802189050A43E260034ABB
:1004400013406360200070BD7F00FEFFFFFFFF9F31
:1004500010B5002B02DB0260436010BD024B034A63
:1004600003483F2102F0B8FC30840010889500104A
:100470004C84001010B582B0040001F0F9FF0200B6
:100480000B006846FFF7E4FF009A019B226063605F
:10049000200002B010BD10B504001F2100F046FD81
:1004A00000220021200000F059FD0021200000F072
:1004B00025FE10BDF0B5C64600B586B004000E009E
:1004C00090461D00234B984242D00721280000F09F
:1004D0002DFD0127009701232A003100200007F09D
:1004E000E7F9414602A8FFF795FF059B1A4A13401A
:1004F000AD021D4305950499184B0B40184A134350
:100500000493184B19400A438023DB0513430493DB
:10051000052002F023FB04F025FA051C12490C9873
:1005200004F019FA011C281C04F001FA011C02A8AD
:10053000FFF73EFF02AB42463100200007F00AFA07
:100540002368B7403B43236006B080BCB846F0BD8B
:100550000621BBE700002050FF83FFFFFFFFF5C12E
:1005600000000A10FFFFF5010000204110B5040053
:100570000022002007E02100114101230B40400030
:100580001843C0B20132072AF5DD10BDF0B583B0C3
:1005900005001249124E300007F06EF90400114FA9
:1005A0003E600021300007F049F901000E4B186051
:1005B00038680E4B00932B002200FFF77BFF0023CF
:1005C00008E00B4A5900C91854180020607088547C
:1005D000A0700133182BF4D903B0F0BDA095001022
:1005E00000002050A81E0020F420002000504349A5
:1005F000541E0020F8B50400080015001F00FFF786
:10060000B5FF06002800FFF7B1FF05003800FFF72F
:10061000ADFF044B6200121999184E70D5548870C2
:10062000F8BDC046541E002010B5002406E000238B
:10063000002200212000FFF7DDFF0134182CF6D93D
:1006400010BD000070B5002528E0164B1868164B49
:100650001C68164B6A005219D65C426821001031A2
:1006600001238B401342F8D1221D920016500F4AED
:10067000690049195218517842681342FCD1221D71
:1006800092001150094A690049195218917842683C
:100690001342FCD10434A40021500135182DD4D9C3
:1006A00070BDC046A81E0020F4200020541E00206B
:1006B000F8B5CE46474680B50500594B984200D95B
:1006C0001D00AC0182218900200003F06DFDC6B23F
:1006D0008221C900200003F067FDC7B2C321C90011
:1006E000200003F061FDC3B2984682210901200079
:1006F00003F05AFDC3B299464949200003F054FD66
:10070000C4B2FFF791FF6B1E9BB2464A93422BD9AE
:10071000454BEB189BB282229200934226D3434B67
:10072000EB189BB282229200934240D3404BEB18CD
:100730009BB282229200934250D33E4B9C4665442A
:10074000ADB282239B009D420AD8002559E00023C8
:10075000002231002000FFF74DFF0134042CF6D9B0
:10076000C0BCB946B046F8BD0024F7E70024042C0D
:1007700007D80023002240212000FFF73BFF01346F
:10078000F5E70524092CEBD80023002239002000CE
:10079000FFF730FF0134F5E700230022402120005D
:1007A000FFF728FF0134092CF6D90A2408E00024B9
:1007B000F9E70023002241462000FFF71BFF013428
:1007C0000E2CF6D9CCE70023002240212000FFF7B1
:1007D00011FF01340E2CF6D90F2408E00024F9E7AC
:1007E0000023002249462000FFF704FF0134132CA8
:1007F000F6D9B5E70023002240212800FFF7FAFED2
:100800000135132DF6D9142506E00023002221001E
:100810002800FFF7EFFE0135182DF6D9A0E7C046F6
:10082000280A000006020000F8FDFFFFF0FBFFFFB2
:10083000E8F9FFFFE0F7FFFF30B583B0002901D1F1
:10084000052A0BD0012912D002291BD0032924D05C
:1008500004292DD0052936D003B030BD6B461F4A80
:10086000190030CA30C1020012CB12C2F4E7042AC8
:10087000EAD16B461A4A190030CA30C1020012CBC5
:1008800012C2E9E7032AE1D16B46164A190030CAC1
:1008900030C1020012CB12C2DEE7022AD8D16B4669
:1008A000114A190030CA30C1020012CB12C2D3E77C
:1008B000012ACFD16B460D4A190030CA30C102005F
:1008C00012CB12C2C8E7002AC6D16B46084A1900EB
:1008D00030CA30C1020012CB12C2BDE7B095001081
:1008E000B8950010C0950010C8950010D095001064
:1008F000D8950010F0B51E4CA54404000D00082248
:10090000002182A804F0CCF87F236A4619495218C6
:1009100013707C3B6A4618495218137082A800F085
:100920001FFA80229200002102A804F0B9F882A9DF
:1009300002A800F091FA2A0021006846FFF77CFF28
:10094000009F019E0024002508E0A300FB582AB266
:10095000052102A800F0D4FA08350134B442F4D3DA
:1009600082A902A800F078FA85239B009D44F0BD7F
:10097000ECFDFFFF090200000B02000010B582B081
:1009800004006846FFF776FD00980199FFF7BCFC6C
:10099000052C17D0062C2CD0214C208880B203F0D7
:1009A000CFFE204A204B03F05EFE03F00DFF1F4BED
:1009B0001860208880B21E4B198889B2FFF79AFF11
:1009C00002B010BD164B1B889BB2042BE2D8194B0A
:1009D0001B68C31AC82BDDD9164B1860104A138840
:1009E00001339BB21380124A1388013B9BB21380E0
:1009F000D2E70F4B1B889BB2042BCDD80E4B1B6844
:100A0000C31AC82BC8D90C4B1860094A1388013384
:100A10009BB21380024A1388013B9BB21380BBE751
:100A2000660B00209A9999999999C93F600B00200B
:100A3000640B0020102100201421002010B584B088
:100A40000A2000F073FBD02424068023DB006362BD
:100A5000A361152000F06AFB80239B036362A361FE
:100A600004210A2000F062FA0421152000F05EFA49
:100A700001A8FFF771FC40230293012201A9052080
:100A8000FFF750FC012201A90220FFF74BFC0022D6
:100A900000210520FFF76CFC002201210220FFF756
:100AA00067FC04B010BD0000F0B5314CA5443148DE
:100AB000314906F0DDFD03210E2000F037FA032155
:100AC0000F2000F033FA002201210E2000F046FA38
:100AD000002201210F2000F041FA00F08BF90822DA
:100AE000002182A803F0DCFF7F236A4623495218C5
:100AF00013707C3B6A4622495218137082A800F09A
:100B00002FF980229200002102A803F0C9FF82A9D8
:100B100002A800F0A1F9012000F082F9194801F0C3
:100B200028FC002000F07CF9002205216846FFF730
:100B300083FE154B05221A80144B00221A80009F59
:100B4000019E0024002508E0A300FB582AB20521DD
:100B500002A800F0D5F908350134B442F4D382A9D3
:100B600002A800F079F985239B009D44F0BDC046A2
:100B7000ECFDFFFF400C0020801A06000902000077
:100B80000B020000DC050000660B0020640B002057
:100B900010B504F027F906F035FC1C20FFF77BFCAC
:100BA0001F4B1A6880239B015340E022D20113405F
:100BB0001C4A136004210D2000F0B8F91A4A88235A
:100BC000FF21D150194B1A6801239343184A13602F
:100BD000052000F0ABFAD02424062023A3620022D3
:100BE0000121052000F0BAF9062000F09FFA402309
:100BF000A36200220121062000F0B0F90D4B012272
:100C00000421052000F01EFA01220421062000F034
:100C100009FA0720FFF7BAFCFFF706FD10BDC04632
:100C200000C0044000D004400000054078000540AA
:100C3000781005407D09001070B51E4B04221A6023
:100C40001D4B1B68DB05FBD51B4B5C68A4B23B2C22
:100C500000D8002423011B1B1801C01AC00017492B
:100C600003F07AFAC8300500052001F077FF29006B
:100C700003F09AFA0004000C114B58679863114B6B
:100C80001D68200003F074FE291C03F064FEFC21A3
:100C9000890503F060FE03F08DFE84B2220000217E
:100CA0000520FFF765FB220001210220FFF760FB12
:100CB00070BDC04600E0044000C00440FF0F0000CB
:100CC00000000540600B002010B51C4B04221A6088
:100CD0001B4B1B68DB05FBD5194B5B689BB23B2BA1
:100CE00025D91A1CFA2109018B4200D90A1C93B29A
:100CF0003C3BD802C01A4000124903F02DFA84B2DE
:100D00000134A4B2220901210620FFF731FB2000A3
:100D1000FFF792FF0C48210004F058F82000FFF77D
:100D2000C7FCFFF78FFC642001F023FB10BD0022FD
:100D300001210620FFF71CFB0024E8E700E0044047
:100D400000C00440640F0000A484001010B5FFF739
:100D50001FFFFFF773FEFFF7A7FEFFF7B5FFFCE7E6
:100D600042780378D21A0132C37881785B1A013352
:100D7000534343607047000000B585B080236A4646
:100D800013735073044800230093023303AA3C21D9
:100D900006F09AFC05B000BD400C002070B50600BE
:100DA0000D00002403E0305DFFF7E6FF0134AC42A4
:100DB000F9DB70BDF0B583B006000D004F1C3800A4
:100DC00003F058FE04004023037001302A00310074
:100DD00003F06CFE0648002300933B0022003C21F8
:100DE00006F072FC200003F04FFE03B0F0BDC046D9
:100DF000400C002070B588B001A8084A1300060016
:100E000032CB32C61A00330032CA32C312881A807B
:100E10001A21FFF7C3FF08B070BDC0460897001045
:100E200000B583B026236A46137000235370937075
:100E3000D370032269460A714B71FF338B7100280E
:100E400008D0D03B6A46D37108216846FFF7A6FF59
:100E500003B000BD2E23F5E730B583B005000C00CC
:100E600021236A4613700B7853704B7893702223BA
:100E7000D3708B781371CB78537106216846FFF7D6
:100E80008DFF61682800FFF795FF03B030BD0000BB
:100E900030B578292EDC182A2CDCD51707242C40F5
:100EA000A218D210144CE55C03242C40022C0DD067
:100EB000DCB22500413DEDB2192D09D9303CE4B238
:100EC000092C0CD8FF251D40153D04E0203BEFE721
:100ED000FF251D40403DD2015118002208E00025A9
:100EE000F9E7EB009B18054CE35C435401320131F8
:100EF000072AF6DD30BDC046119E0010E0950010B7
:100F0000F8B507000C0016001D0078290DDC182A22
:100F100008DD0AE00135320021003800FFF7B8FF94
:100F2000083424B22B78002BF4D1F8BD10B583001F
:100F3000084A944663441A6840246240803414404E
:100F40008022520113431C60C000034B9C46604446
:100F5000416010BD04C001400040014080000B4BC7
:100F60009C46604400290DD00823002A0CD004229E
:100F70001343026853400C221A4080235B01034351
:100F80001A6070470023F0E70022F1E704C0014037
:100F900070B50400D0231B061D680D4BAA00D35862
:100FA000002B0AD0002803D0094BAD00EC5070BDD7
:100FB00008490D2000F040FBF6E70028F7D0044B6D
:100FC000AD00E850034900220D2000F02DFAEEE7B5
:100FD0009C19002065100010072303409B00C008E7
:100FE00099403C308000014BC150704700400140A7
:100FF000F8B507000C0016001D00FFF7EDFFFB0819
:101000009B00ED180720384080008440002E04D05B
:1010100080239B012B431C60F8BDC0239B012B4305
:101020001C60F9E710B5D0231B061B68002B03D00A
:10103000024BFFF7DDFF10BD014BFAE730410140E5
:101040000041014070B514001D00FFF7EBFF2800C0
:10105000FFF79EFF002C00D170BD01210D2000F094
:101060008FF9F9E7F0B5D6464F464646C0B5D023CE
:101070001B061F681D4BBA00D3589846002F03D09B
:101080001B4B9946002623E01A4B9946FAE72409A0
:101090000135002C1BD033000833AB4217D90F2386
:1010A0001A00224092462342F1D0134BBA00D25884
:1010B0000123AB401342EAD151462800FFF78CFFD1
:1010C0004346002BE3D051462800C047DFE70836EF
:1010D0001D2E06D8F30808339B004A469C5835005D
:1010E000D7E7E0BCBA46B146A846F0BD9C1900203F
:1010F0003041014000410140DC1E0020002909D0A0
:101100008000094B9C46604480239B01034340229E
:101110001A6070478000044B9C466044C0239B01CA
:10112000034340221A60F4E704C0014010B50123D4
:101130008340D0221206936293610521FFF7F6FEE9
:1011400010BD0000034B1B6802201840431E98414D
:10115000C0B2704700C00640EFF3108072B6034B78
:101160001B68002BFBD0BFF35F8F70472C0100D0B2
:10117000BFF35F8F024B00221A6080F31088704724
:101180002C0100D0F8B506000C001500FFF7E4FFB5
:10119000E308F718F15C07222240012393400B4239
:1011A00005D1DBB20B433B70FFF7E2FFF8BD210036
:1011B000280001F0A9FEF0B583B0060001911400EB
:1011C0001F00FFF7C9FF00E00134BC420CD8E30860
:1011D000F518F35C0721214001228A401A42F3D11D
:1011E000D2B21A432A7001E001246442FFF7C0FF23
:1011F000002C02DB200003B0F0BD019B002BF9D0D6
:10120000089801F081FE0000002307E0054A9A18C3
:101210009200BFF35F8F0021116001331F2BF5D9BE
:101220007047C04640000034054A1078431CDBB2CA
:101230001370172B02D9130010221A707047C04682
:10124000680B002010B582B00100054C054B0093DF
:101250001F2318222000FFF7AEFF02B010BDC046CA
:10126000AC19002020850010074B9B6810308000CF
:101270001950BFF35F8FBFF35F8F044B00211960DC
:1012800082F310887047C04600ED00E0240100D0D2
:1012900010B50388DA0A1C2A05D15B055B150233F9
:1012A0005B00C01810BD034B034A0448B12101F094
:1012B00093FDC0463C8500107897001054850010BF
:1012C00010B5091A0B1F0A4A88180A4A904208D812
:1012D000C90706D45B105B055B0D0748184380B255
:1012E00010BD064B064A0748A32101F075FDC04614
:1012F000FC070000FE0F000000E0FFFFA4850010C7
:101300006C9700105485001010B5091A04394A086A
:10131000090B08D14905490D064B0B430380064BC9
:101320001343438010BD054B054A0648AB2101F02D
:1013300053FDC04600F0FFFF00F8FFFFD48500100A
:10134000409700105485001001238340034A106821
:101350001840431E9841C0B27047C04600E100E00B
:10136000002904D0034B1860034B18607047034BEF
:101370001860FBE780E200E000E100E080E100E0CF
:1013800010B5012383401800FFF7EAFF10BD0000ED
:1013900001238340014A13607047C04600E200E029
:1013A000024B9B6810308000C058704700ED00E091
:1013B00010B5FFF7F5FF002805D0054BC01A2F2800
:1013C00003D8012010BD0020FCE70020FAE7C0464A
:1013D0006C0B002070B504000D00EFF3108672B6A0
:1013E0000C4B1B68002BFBD0BFF35F8F2000FFF777
:1013F000D7FF094B984201D0A84205D132002900FD
:101400002000FFF731FF70BD044B054A05488621D7
:1014100001F0E2FC240100D0CD010010E4850010B1
:10142000A097001054850010F0B5DE4657464E4692
:101430004546E0B589B0814601911500EFF3108A69
:1014400072B66D4B1B68002BFBD0BFF35F8F6B4BED
:1014500000269E57002E41DB7400A419A4006848A2
:1014600024180622A256654B1A70664B9A684B46A2
:1014700010339B00D35898461F00181A2F2839D9CB
:10148000614B984530D105AF604B3B80604973009C
:101490009B46981980005A4B984640440230FFF70B
:1014A0000FFF78805B4BBB80FF23BB71FD71019BFD
:1014B000079333005B449B00434407CF07C30123DA
:1014C0001C43A046524641464846FFF7CDFE09B0B0
:1014D000F0BCBB46B246A946A046F0BD4E4B4F4AB3
:1014E0004F48D72101F078FC4E4B4C4A4C48DE2146
:1014F00001F072FC01380C2102F056FE002912D1D5
:1015000001239F43BB463B000027DA79AA4211D949
:101510000621595600290CDB4A005218920038491E
:101520001F008B18F1E7404B3C4A3D48EA2101F08F
:1015300053FC1F00002F2ED005AB3C4A1A80813A85
:101540005A800623FB560293002B17DA384805AB66
:101550009B469880029A9A71DD71019A0792381D14
:101560002100FFF7ADFEB880BE71254B72009219C5
:1015700092009B185A4613CA13C3A3E7381DFFF7FE
:1015800087FE01007000801980001D4BC0180430D8
:10159000FFF796FEDBE705AF1C4B3B801C49730051
:1015A00002939B199B00164A90461A0042440392EC
:1015B000901CFFF785FE7880039A101D5946FFF7AF
:1015C0007FFEB8801B4B5A464146521A5241534344
:1015D0001B0DBB71FD71019A0792029B9B199B0029
:1015E000434407CF07C3114B5A461380813B5380B6
:1015F00001231C43A04665E7240100D02E210020D2
:101600006C0B002000ED00E0CD01001000A1FFFFF9
:101610009C0B002001BDFFFF1C8600108897001066
:1016200054850010448600106C86001001480000AC
:1016300001BD0000AAAA0000F0B5CE46474680B51D
:1016400083B006000D00EFF3108872B64F4B1B6895
:10165000002BFBD0BFF35F8F4D4B9A6834001034E2
:10166000A300D7584B4B9F4207D0AF4200D18BE02D
:101670000197494BFB1A2F2B09D9424639003000FC
:10168000FFF7F2FD03B0C0BCB946B046F0BD300074
:10169000FFF75AFE814600213000FFF771FEBFF3CD
:1016A0005F8FEFF30581002901D08C4211D1012316
:1016B000019C9C430020A368AB4212D00622A25694
:1016C000002A0DDB53009B189B00334A2000D418DE
:1016D000F1E7324B324A36213248FF3101F07CFBD0
:1016E0002000AB4249D106256557002D2BDB2A4B44
:1016F0006A00521992009B189A68A260DA79E27126
:101700009B795BB2A371002B0FDA2748A080224B94
:101710006A00521992009B18244A11789971157029
:1017200049463000FFF72CFEA7E76800401980000B
:10173000194BC0180430FFF7ABFD0100231D180042
:10174000FFF7BEFDE2E7002912D100280ED0FF23EB
:101750008371174B838015490B78A3710E4A154B83
:10176000A41A644163431B0D0B70D9E7094FF2E7DC
:101770001149201DFFF7C8FDD2E7104B084A6A2126
:101780000848FF3101F028FB024F76E7240100D022
:1017900000ED00E0CD0100106C0B0020E086001091
:1017A000589700105485001001BD00002E21002024
:1017B00001BDFFFFAAAA0000A60B0020148700109D
:1017C00070B5012202432E4BD31A2F2B28D8EFF3EA
:1017D0000583002B2BD0EFF3108C72B629490968D2
:1017E0000029FBD0BFF35F8F254C274905002D1B37
:1017F0006D416943090D4CB2244989689B00C95861
:1018000091421BD00021032932D81D4B4A005218A7
:1018100092009B189B795BB2A3421FD00131F2E783
:101820001B4B1C4AC7211C48490001F0D5FA1B4B31
:10183000184A92211848FF3101F0CEFA134A9268F3
:101840001749D150174B1A7882711C70BFF35F8F04
:101850000C4B00221A608CF3108870BD084B4A00B4
:101860005518AD005D19FF26AE710F4AAA80E9E751
:101870000E4B084AD1210848490001F0ADFAC04694
:101880006C0B0020240100D0AAAA000000ED00E0AB
:101890001C87001024970010548500104487001006
:1018A000CD0100102E21002001BDFFFF5087001048
:1018B0000022044B02E0044902C30132072AFAD98C
:1018C0007047C04600E400E08080808010B582B0A0
:1018D0000100074C074B0093052300222000FFF76F
:1018E0006AFC002801DB1F23181A02B010BDC04695
:1018F0003321002058870010024B9C466144890028
:10190000016070474000003410B5002B02DB02601C
:10191000436010BD024B034A03483F2101F05CFACB
:1019200030840010E09700104C84001070B582B035
:10193000060014001D00FA229200002306980021E0
:1019400002F0D2FF02000B0012196B41002B09DBE1
:101950006846FFF7D9FF009A019B32607360300040
:1019600002B070BD01225242004BF1E7FFFFFF7F42
:1019700010B582B0040000F07BFD02000B00684649
:10198000FFF7C2FF009A019B22606360200002B053
:1019900010BD30B585B004000D0002A8FFF7E8FFC8
:1019A000029A039B00952000FFF7C0FF200005B0BE
:1019B00030BD10B50400FFF737FC01002000FFF731
:1019C0009BFFFF232371BFF35F8F10BD10B5040091
:1019D000FFF72AFC01002000FFF78EFFFF23237191
:1019E00000236371BFF35F8F10BD0000034B9C4663
:1019F000614489000160BFF35F8F7047400000348D
:101A000010B504000120FFF71DFC01002000FFF7C6
:101A1000EDFF10BD084B5B6A994209D8064A926AED
:101A2000824207D2994201D0012002E0002000E06A
:101A3000002070470120FCE70040054010B5002958
:101A40000AD003681B7B8B4206D38068054B9C46FB
:101A500061440901401810BD034B044A04483C216D
:101A600001F0BAF9FFFFFF0F14880010C8980010AA
:101A700038880010F8B504001700FFF7DFFF06688C
:101A8000456839002000FFF7D9FF0268436801204C
:101A9000AB4201D802D00020C0B2F8BDB242FBD8A0
:101AA000F9E7000010B5002B02DB0260436010BDB7
:101AB000024B034A03483F2101F08EF930840010A5
:101AC000949800104C84001010B582B00400049863
:101AD000059912184B41002B09DB6846FFF7E2FF1E
:101AE000009A019B22606360200002B010BD0122B9
:101AF0005242014BF1E7C046FFFFFF7F10B50029BE
:101B000008D0037B8B4205D300684B005B18033B76
:101B1000C01810BD024B034A0348682101F05CF96C
:101B20008488001070980010A088001010B5437BC6
:101B30008B4201D1012010BDFFF7E0FF8378002B1D
:101B400001D10020F7E70120F5E770B50400857B9F
:101B5000002D01D1280070BD2900FFF7CFFF437889
:101B6000A373002B00D1E3730023837043700370D1
:101B7000F0E70000F8B506000C001500FFF7BEFF07
:101B80000700002C0DD0002D11D0AC4215D029003B
:101B90003000FFF7B3FF84703B78002B13D13D700A
:101BA000F8BD0A4B0A4A0B486F2101F015F90A4BA0
:101BB000074A0848702101F00FF9084B044A05480C
:101BC000712101F009F943703D70E9E700890010C7
:101BD0004C980010A08800100C8900101889001083
:101BE00070B506000D001400002914D0002A14D08E
:101BF000436880689847002806D0220029003000FA
:101C0000FFF7B8FF280007E02A0021003000FFF7A7
:101C1000B1FF200000E0100070BD0800FCE70000EC
:101C200070B504000D1E0CD0FFF768FF0023837011
:101C300043700370617B2A002000FFF7D1FF6073BF
:101C400070BD034B034A0448A52101F0C5F8C04606
:101C50003089001060980010A088001070B5040052
:101C60000D1E0FD0FFF762FF00280BD1E17B00298A
:101C70000ED1A37B002B03D1E37B002B0DD1A573E9
:101C8000E57370BD084B094A0948F62101F0A4F834
:101C90002000FFF733FF4570EBE7064B034A04488B
:101CA000FB2101F099F8C046348900103C980010DF
:101CB000A08800105889001010B5002907D00368CB
:101CC0001B7B8B4203D3C0680139401810BD034B06
:101CD000034A0448412101F07FF8C04614880010EF
:101CE000289800103888001070B505000C00080016
:101CF00000F09AFC0949200000F0DAFBFFF794FAA3
:101D0000074B9C466044800068602C75D0231B06FE
:101D10001B786B75034BA400E55070BD351E001099
:101D200040000034CC1E00200A4B1A68EFF31081EB
:101D300072B61368002BFCD0BFF35F8F054B1B6896
:101D4000BFF35F8F00221A6081F3108840BF00202C
:101D500000217047F020002010B582B0040000F090
:101D600087FB02000B006846FFF79CFE009A019B70
:101D700022606360200002B010BD70B584B0040022
:101D800016001D0002A8FFF7E7FF029A039B0096CA
:101D900001952000FFF798FE200004B070BD000000
:101DA000F0B583B0070001921D000AAB1C780BABA5
:101DB0001E78002C0BD000682100FFF7B7FE00282A
:101DC00009D0194B194A1A48672101F005F8006833
:101DD000FFF7BBFE0400002C02D1200003B0F0BDD1
:101DE00021003800FFF72AFE019B03604560089B35
:101DF0008360099BC36038682100FFF711FFA04290
:101E0000EBD1387D019A2B0000F09AFB051E01D022
:101E1000002E04D00C9B002BDFD01D70DDE738684E
:101E2000210000F047FDF5E76C8900107C98001058
:101E300038880010F0B5DE4657464E464546E0B5B8
:101E40008FB00B900021794B8200D458894683E0F3
:101E500029002000FFF7F2FD804602684368921BCC
:101E6000BB41002B09DD43461A685B680B9800F004
:101E700067FB0023984600268AE0002B01D1002A48
:101E8000F1D10021584600F00BFD0700A84215D102
:101E900043461A685B680892099343469E68DB686C
:101EA0009846002E10D029002000FFF705FF037888
:101EB00099461B021F432761002069E05C4B5D4A85
:101EC0005D488E2100F088FF5C4B5A4A5A489221A7
:101ED00000F082FF2369002B00D177E0BB4219D1CB
:101EE00006980799002342428B4100920193089A79
:101EF000099B0CA8FFF7E8FD0C9A0D9B00210491AB
:101F00000131039102954146019100962000FFF7AF
:101F100047FF16E04A4B474A4748A12100F05CFFC3
:101F2000069A079B002B01D1002A52D12068290074
:101F3000FFF794FE29002000FFF7BEFE037801336F
:101F40000370002323616268BFF35F8F13608AF31D
:101F500010880120002861D00CA8FFF7FDFE0C9E20
:101F60000D9F00220023089209936268EFF3108A04
:101F700072B61368002BFCD0BFF35F8F23689B46BB
:101F80005D7B002D00D063E70023984600260020EB
:101F90006368BFF35F8F00221A608AF31088002EF7
:101FA000D8D04B461F022F4341463800B047069019
:101FB00007916268EFF3108A72B61368002BFCD0A9
:101FC000BFF35F8F079B002B00DA83E7079B002B93
:101FD000A6DD2369002BA9D0BB4219D10CA8FFF7BD
:101FE000BBFE0C9A0D9B06980799009001910CA8D6
:101FF000FFF76AFD0C9A0D9B0021049101310391BA
:1020000002954146019100962000FFF7C9FE98E72E
:102010000B4B084A0848A42100F0DEFE0FB0F0BCCC
:10202000BB46B246A946A046F0BDC046CC1E002025
:1020300094890010AC98001038880010AC8900100A
:10204000B889001010B50C4B5B68002B04D00B480E
:102050000A21FFF751FC10BD074C094A20682300F4
:10206000102100F088FB032000F0F6F90321200086
:10207000FFF73AFEEBE7C046B40B0020F02000204B
:10208000751A001010B5064B5B68002B01D0044890
:1020900010BD044B044A05485E2100F09DFEC04679
:1020A000B40B0020F489001010980010388800103C
:1020B000F0B5DE4657464E464546E0B58DB00600C3
:1020C00090461F00169B9A46179B994618AB1B78A3
:1020D0000793272302AA9446634400221A7021E042
:1020E00001003000FFF7E8FD00783CE00698002B87
:1020F0005CD0079B002B59D04946D04704000D0007
:1021000003000B4359D0002940DB08A8FFF724FE49
:10211000089A099B0094019508A8FFF7D5FC089B35
:102120009846099F7268EFF3108B72B61368594294
:102130004B41D9B20691002BF8D1BFF35F8F273303
:1021400002AA9446634404930023039302934B46EC
:1021500001935346009342463B003000FFF720FEB8
:102160000400051EBCD17368BFF35F8F00211960A6
:102170008BF31088002D17D0272302AA94466344BE
:102180001B78002BB2D100022043B0E7002362424B
:10219000AB410092019342463B0008A8FFF794FC34
:1021A000089B9846099FBDE7012040420DB0F0BC56
:1021B000BB46B246A946A046F0BD0698F6E7F0B584
:1021C000C64600B584B00500884616001F000AAB5D
:1021D0001C78FFF757FF0294019700962A004346A8
:1021E000FFF766FF04B080BCB846F0BDF0B5C64648
:1021F00000B505000C1E42D04268EFF3108772B69E
:102200001368002BFCD0BFF35F8FE6B22B689846B3
:1022100031001800FFF78AFC00282AD02B69A3425E
:1022200013D0240AE4B231002800FFF745FD0378FB
:10223000A34211D000206B68BFF35F8F00221A60A9
:1022400087F3108880BCB846F0BD0E4B0E4A2C2197
:102250000E48FF3100F0C0FD3100404600F02AFB7F
:102260000028E8D10A4B084A99210848490000F0A3
:10227000B3FD2B69A342DED100232B61DBE70020F5
:10228000E0E7C046188A0010F89700103888001060
:102290003C8A001010B50400FFF7F4FE2100FFF7A0
:1022A000A5FF10BD407D704730B587B004000D001C
:1022B000EFF30583002B20D106225242D3171219C7
:1022C0006B418B4202D803D1824201D90022002304
:1022D00004A8FFF7E7FB02A8FFF73EFD0298039969
:1022E000049A059B121A8B41002B0BDC08D02000AE
:1022F000290000F0C9F807B030BD144800F004FE12
:10230000002AF4D0124A0498059900230093FFF79D
:1023100056FF002813DAEAE70E4B1A68EFF3108134
:1023200072B61368002BFCD0BFF35F8F094B1B689C
:10233000BFF35F8F00221A6081F3108820BF0498DA
:102340000599FFF767FB0028E6D0D0E7408A001028
:10235000291D0010F020002000B583B002000B0002
:102360006846FFF70AFD00980199FFF79DFF03B04B
:1023700000BD10B5FA2292000023002102F0B4FA49
:10238000FFF7EAFF10BD000030B583B005000C0078
:10239000EFF30583002B0FD10B4A00230093FFF7C7
:1023A0000EFF00280BDD20BFFFF774FF280021007F
:1023B000FFF730FB03B030BDFFF72CFBFAE7280036
:1023C0002100FFF727FBF5E7291D001070B5EFF39B
:1023D00005801038EFF3108C72B6194B1B68002B78
:1023E000FBD0BFF35F8F01221300834015494B637D
:1023F00015490B60154909780C00C440224213D0DE
:10240000104A546A124A8500AA58944205D3114AC8
:10241000AA580E4C9943217007E00A4A031D9B00FD
:1024200099589950002200E00022BFF35F8F044BBF
:10243000002119608CF31088002A00D0904770BDED
:10244000280100D0004005403C70054032210020AA
:10245000002100208C18002010B50100024A034B17
:102460001800FEF78FFE10BD908A00102C2100206E
:10247000044B5B6A034A906A1900536A9942F9D186
:102480007047C04600400540084B5B6A01E0074BBF
:102490005B6A8B42FBD301E0044B5B6A8B4203D146
:1024A000024B9B6A8342F7D37047C0460040054009
:1024B00070B504000E00EFF3108572B61B4B1B685D
:1024C000002BFBD0BFF35F8F002E1CD02000FEF747
:1024D00067FF174B83420BD019002000FEF77AFFED
:1024E00001212000FEF74CFF0123A340114A136095
:1024F000114BA400E650BFF35F8F0C4B00221A6013
:1025000085F3108870BD0C4BA2000021D150012230
:10251000A2400A490B7893430B7005492000FFF74E
:102520008BF800212000FEF72BFFE4E7280100D004
:10253000CD230010386005408C1800203221002087
:10254000F0B5DE4600B584B00400150001921E000F
:102550000293FFF78DFF03958E4202D84ED185423C
:102560004CD9EFF3108B72B6274B1B68002BFBD0B6
:10257000BFF35F8F254A17780125A540EBB23B4397
:102580001370234B5D63221D92000199D150214AA3
:10259000A100029888501B6A2B4212D11C4B1B6C65
:1025A0002B4208D00020BFF35F8F174B00221A6028
:1025B0008BF3108823E0184B184A1948C52100F006
:1025C0000BFCFFF755FF8E4214D802D1039B8342C8
:1025D00010D80E4B1B78BB420ED00D4B1D625D63B5
:1025E0001F222240012393400E4A1360074B1F70A5
:1025F0000120D8E70020D6E70120D4E7012004B06D
:1026000080BCBB46F0BDC046280100D0322100206E
:102610000040054000210020B48A0010D49800102A
:10262000D88A001080E200E0EFF3108C72B60B4BFA
:102630001B68002BFBD0BFF35F8F01238340084A48
:10264000136208490A789A430A70BFF35F8F034BFD
:1026500000221A608CF310887047C046280100D011
:10266000004005403221002010B5002908D0037B2E
:102670008B4205D300684B005B18033BC01810BDAC
:10268000024B034A0348682100F0A6FB848800102F
:1026900030990010A0880010F8B506000C00150055
:1026A000FFF7E2FF0700002C0DD0002D11D0AC4247
:1026B00015D029003000FFF7D7FF84703B78002B3E
:1026C00013D13D70F8BD0A4B0A4A0B486F2100F048
:1026D00083FB0A4B074A0848702100F07DFB084B3A
:1026E000044A0548712100F077FB43703D70E9E72B
:1026F000008900101C990010A08800100C8900109F
:102700001889001070B506000D001400002914D0BF
:10271000002A14D0436880689847002806D0220019
:1027200029003000FFF7B8FF280007E02A00210049
:102730003000FFF7B1FF200000E0100070BD08007E
:10274000FCE770B505000023437301338373037BFB
:10275000C373012406E021002800FFF785FF013440
:10276000E4B24470297BA142F5D82800FFF77CFF32
:102770000023437070BD10B5017342608360FFF7A2
:10278000E0FF10BDF0B5C64600B505000C1E03D134
:10279000200080BCB846F0BDFFF766FF4678002EEB
:1027A000F6D031002800FFF75FFF477800239846F6
:1027B000437021002800FFF757FF43464370320063
:1027C00021002800FFF79EFF040039002800FFF7D2
:1027D000D9FF020021002800FFF794FF0400D7E78B
:1027E000F0B5C64600B504000D001700002927D03B
:1027F000FFF73AFF4378002B28D18378002B2BD1A9
:1028000001782000FFF7BEFF06008046002F0AD0A7
:10281000E17B002926D1A37B002B03D1E37B002B96
:1028200025D1A573E5734346002B26D1290020004E
:10283000FFF71AFF00234370300080BCB846F0BD9C
:10284000114B124A1248382100F0C6FA114B0F4AB8
:102850000F483A2100F0C0FA0F4B0C4A0C483B21BC
:1028600000F0BAFA2000FFF7FFFE4570D3E70B4BEC
:10287000064A0748422100F0AFFA31002000FFF776
:10288000F3FE00238370D1E72C8B00100899001011
:10289000348B0010808B0010A88B0010588900101A
:1028A00070B504000A00457B2900FFF799FF6073AB
:1028B000280070BD70B506000C1E40D0437B8B42D3
:1028C00007D0FFF7D1FE05008178002906D100204E
:1028D00036E00121FFF7E4FF012031E03000FFF78F
:1028E000C3FE0178A1420DD03000FFF7BDFE417854
:1028F000A1420AD00029F7D1124B134A13486B3179
:1029000000F06AFA6B78037001E06B784370002383
:10291000AB706B70012221003000FFF761FF0200F5
:10292000717B814205D03000FFF7ECFE707301200F
:1029300006E0074B044A0548712100F04DFA0020DB
:1029400070BDC04650870010F0980010348B001006
:10295000CC8B0010F8B5DE4657464E464546E0B5EE
:1029600006000F0015000A9A934250D31A0E9246A1
:102970001B0298460A9A00234046514601F052FC39
:1029800081467400A419A4002F4B9C4664446368DC
:10299000834200D26060331FDBB29B46012B3CD9DF
:1029A000C0239B012343802212011A60274BB200EF
:1029B000D158002907D0586901F0F6FB01304300D7
:1029C0001B18033BFDD26D0123685D40E0222A40C5
:1029D00080235B0123431A605A46012A28D98023A9
:1029E0009B012343802212011A604B4663604A46D2
:1029F00000234046514601F015FC144BB600985197
:102A00000120F0BCBB46B246A946A046F8BD104B1B
:102A1000104A1148332100F0DFF9012FC0D1C02343
:102A20009B01234303221A60A368DB07FCD5CAE796
:102A30002168794003220A401A60A3680125BD403D
:102A40001D42FAD0CBE7C04600800040B0190020FC
:102A5000EC8B00103C990010008C001030B583B056
:102A60000C2000F011F9FEF76DFB00280DD00023BB
:102A700004E02E4A99002E4888500133092BF8D9DA
:102A80002A4B2C4A5A6203B030BD2B4B00229A6766
:102A900000F06CF9294B01221A60274B5B6C012B6B
:102AA000FBD1274B03221A60234B9B6B012BFBD1DD
:102AB000013300930433234A0121234800F054F8E2
:102AC00005230093214A0121214800F04DF8214BB4
:102AD0000093002202210420FFF73CFF1E4D0095C9
:102AE0002B00002201210520FFF734FF104C009439
:102AF0002300002200210720FFF72CFF0094230071
:102B0000002200210820FFF725FF0A4B0093230035
:102B1000002200210920FFF71DFF00952B00002255
:102B200000210620FFF716FFADE7C046B0190020D0
:102B3000006CDC021BB70000008000403CB000408D
:102B400030B00040002F685900800240008C86475A
:102B500000C00240001BB70040597307014B8000C2
:102B6000C0587047B0190020F0B5C64600B5040043
:102B70000E0017001D00374801F016FB8046364B4B
:102B8000FA18364B9A4239D80100380001F00CFB94
:102B90000200103A98235B009A4235D86B1E062B30
:102BA00038D8069B013B062B34D83F09474537D31D
:102BB0002D04069B1B031D432368002B36DB284B8B
:102BC0009C4244D080235B01264A1360264A13604E
:102BD000264A926819009143FAD12660A060221D0E
:102BE000C0239B01134321221A602268002AFCDAC9
:102BF000E56008221A6080BCB846F0BD1C4B1D4A37
:102C00001D48112100F0E8F81C4B1A4A1A481921F6
:102C100000F0E2F81A4B174A17481C2100F0DCF8C4
:102C2000184B144A1448232100F0D6F822683F2399
:102C30001340B342C3D1A3681B051B0D8342BED111
:102C4000E368EE22D2021340AB42B8D1D3E780232F
:102C50009B01B9E7001BB70080E84BD380F8A9328D
:102C600000C0024000E0004000F0004000C0004012
:102C7000588C00104C990010B88C0010088D001072
:102C8000248D0010708D001080239B000343014AA7
:102C9000D362704700800540024B1A68024B5A60AD
:102CA0007047C046A01E00200080054010B5174B9D
:102CB0008022D2051A60164B164A1A6000290AD0E3
:102CC000154BE022D2041A60002809D1124B802251
:102CD00012061A6010BD0D4BE022D2041A60F3E711
:102CE00043011B1A9B00181800010C4B186080232D
:102CF0005B04984202D3094B094A1A60FFF7CCFFE4
:102D0000054B8022D2051A60E4E7C04600B00540BA
:102D100008200140FCFF010000A00540A01E00208B
:102D2000FFFFFF0010B5030010000C4A8024E405EB
:102D30001460002B0DD001221343094A094CD461C1
:102D4000094C5C401462516293620021FFF7AEFFB0
:102D500010BD034B0022DA61F7E7C04600B0054022
:102D600000800540D3C007B02D3FF84F064BAA2284
:102D700012011A602F22DA60044B054A1A60024BD6
:102D80005B68002BFBDA70470040024000600240A5
:102D900000B0FA0000BEFDE703000A4A1268002AEC
:102DA00008D0084A1068C318074A9A4206D3054A51
:102DB00013607047034A05491160F2E70120404261
:102DC000F7E7C046501A00200000042034210020FC
:102DD00010B5FFF7DFFF000030B583B00D0019001C
:102DE000002A0BD0074B084C019200932B000200E5
:102DF000200001F0EBFF0120FFF7CCFF034B1A008E
:102E0000F1E7C0468C8D00109C8D0010AC84001042
:102E100070B52B4B2B4A1A602B4B2C4A1A602C4B4B
:102E20009A682A4B9343FAD12A4C01E008CC984780
:102E3000294B9C42FAD3FFF711FE234B274A1A6015
:102E4000234B9B68DB43DB01FAD1254B40229A6779
:102E50005A671A67DA66234C09E0234B234A244851
:102E60008721FFF7B9FF2000FEF7A3FD0834214BAF
:102E70009C4209D22368002BF5D0012BEDD1200014
:102E8000FEF7A4FD0834F2E71B4DA9681B4CC022D5
:102E9000200001F00BFEAC60EFF30583002B00D0A7
:102EA00000BEFEF7B1F9FEF703FDFFF7CBF8144CB7
:102EB00001E008CC9847134B9C42FAD370BDC04642
:102EC00000E00040BFCDFBFE00F00040FE7F3C0074
:102ED00000C00040B0110020C0110020FFFFFF0122
:102EE00000F00140A8110020CC8D0010589900106E
:102EF000EC8D0010B011002000ED00E0000000207B
:102F0000C0110020C81100200FB400B583B00848DC
:102F100001F02CFF049B002B07D005A9019118009C
:102F200001F034FF034801F021FF0120FFF732FFD9
:102F3000408E0010508E0010704710B5002802D04F
:102F40000B684968984710BD0100002007E0830026
:102F50001B185B00501C08601078C01830380A68D5
:102F60001378303BDBB2092BF1D97047F0B5DE4660
:102F700057464E464546E0B583B093461F000C9B2E
:102F80009A460D9C0E9B99460F9B9B0703D0B84613
:102F90000F00060022E00192A34688464E46B9463D
:102FA0000700B44207D2551C4B4641462020B84783
:102FB00001342A00F5E73D004F465C46019B9B46E5
:102FC000B1464646B84637002E0007E0013C551C86
:102FD0005346185D43463900B0472A00002CF5D10E
:102FE00035003E0047460F9B9B0707D4100003B0F7
:102FF000F0BCBB46B246A946A046F0BDB0464E4620
:10300000B9462F005D46531BB342EFD2541C4B46CA
:1030100041462020B8472200F5E7F0B5CE464746A6
:1030200080B585B0944698460C9D0D9C0EAB1B78E0
:103030009946109A119B129EB7071CD4002B0CD0F6
:10304000F7070AD54F46002F02D10C37374204D07C
:10305000013B02E030272F550134944201D21F2C4E
:10306000F8D9F70707D59C4205D21F2C03D8302783
:103070002F550134F5E7F70612D5770505D4002C56
:1030800003D0944221D09C421FD00F9A102A32D0F4
:103090000F9A022A37D01F2C0AD830222A55013421
:1030A0001F2C05D84A46002A33D02D222A55013438
:1030B000039602930194009543466246FFF756FF3C
:1030C00005B0C0BCB946B046F0BD621E012C10D0A0
:1030D0000F9F102F0BD014000F9A102AD8D1B206D0
:1030E000D6D51F2CD4D858222A550134D3E7023C18
:1030F000CBE71400C9E7B206EED41F2CECD8782237
:103100002A550134C7E71F2CD2D860322A55013422
:10311000C1E7720703D52B222A550134C8E73207CD
:10312000C6D520222A550134C2E7F0B5DE465746FF
:103130004E464546E0B593B081468A4608920993CB
:103140001CAB10CB1B789B461E9D219B9846002CE8
:1031500003D1102342469A4390468023DB00464623
:103160001E4042461A4212D0002C22D000260EE009
:103170003033D9B2771C0AAB99552900200001F0F1
:1031800013F8AC4216D31F2F14D83E0004002900B8
:10319000200001F009F8CBB2092BE9D9424692068A
:1031A00005D54121C918C9B20A39C9B2E2E761217E
:1031B000F8E7270043460693209B05931F9B049343
:1031C00003955B46029301970AAB0093099B089A0B
:1031D00051464846FFF721FF13B0F0BCBB46B2464C
:1031E000A946A046F0BDF0B5DE4657464E464546D8
:1031F000E0B597B00A900B910C929A46209B9946A5
:10320000219F22AA13789B46249B0993259C289BE7
:1032100098464A463A4302D1103293439846802258
:10322000D20045461540434613420AD04A463A4327
:1032300041D000252E0053460D934D46099B9A46DA
:103240001BE02E0053460D934D46099B9A4614E011
:103250003033DAB2731C99460EAB9A5552462300AE
:103260002800390000F0DEFFBC4226D819D04B46BA
:103270001F2B1CD84E4605000F0052462300280085
:10328000390000F0CFFFD3B2092BE1D942469206B4
:1032900005D54122D218D2B20A3AD2B2DAE7612277
:1032A000F8E7AA45E3D94E460D9B9A4608E04E46FC
:1032B0000D9B9A4604E0002602E04E460D9B9A467E
:1032C00043460693279B0593269B0493099B0393F0
:1032D0005B46029301960EAB009353460C9A0B99F2
:1032E0000A98FFF79AFE17B0F0BCBB46B246A94653
:1032F000A046F0BDF0B5DE4657464E464546E0B521
:1033000091B0804689460C929A461A9C1B9D2200D9
:103310002B002000290001F000FA002800D0ECE08A
:1033200001225242D44B2000290001F0F1F900287B
:1033300000D0E2E001225242D04B2000290001F0EF
:10334000D1F9002800D0D8E0002200232000290075
:1033500001F0C8F9002800D0E4E006940795802326
:10336000DB001E9A1A400D921E9A1A4201D10623C2
:103370001C930698079902000B000892099303001A
:103380000A00024300D1D9E0080D4005400DBC4EB3
:10339000B44660440A03120B1E00BA4B13431F00CD
:1033A00001F0CEF9B84AB94B01F05DF9B84AB94B12
:1033B00001F03AF9089009910022B74B300039002A
:1033C00001F02DF9B54AB64B01F04DF902000B00A2
:1033D0000898099901F028F901F0CAF9834601F02B
:1033E000AFF906000F00AF4AAF4B01F03CF90022E5
:1033F000AE4B01F019F901F0BBF90890AC4AAD4BA6
:103400003000390001F02FF906000F00089801F094
:1034100097F9A94AA94B01F026F902000B003000E8
:10342000390001F0FCF806000F0002000B0001F06B
:103430001AF90A900B91089BA14A94466344002113
:103440000022089109921B0509930023089332007A
:103450003B003000390001F0E7F80E900F91320088
:103460003B0000208021C90501F0D9F806000F00BB
:103470000022944B0A980B9901F0DBF80022924B42
:1034800001F0D2F802000B000A980B9901F0D1F874
:1034900000228E4B01F0C8F802000B000A980B992D
:1034A00001F0C7F802000B003000390001F0BCF851
:1034B00002000B000E980F9901F0BBF80022714B2F
:1034C00001F0B2F8089A099B01F0CDF806000F0050
:1034D00008960997069A079B01F01AF900282FD041
:1034E00001235B429C46E3440022774B30003900C5
:1034F00001F09FF80890099122E01E9B04931D9B08
:1035000003931C9B02930094019553460C9A4946E1
:10351000404600F0FFF811B0F0BCBB46B246A946E9
:10352000A046F0BD00210022069107920694802358
:103530001B069C46AC446346079310E700239B465A
:103540005B466333C62B20D804261E9B1B0528D55B
:10355000089A099B190011430FD05D4A5D4B0698EC
:10356000079901F0CDF800287AD000225A4B06982E
:10357000079901F0B7F8002872D01C9B5B4506DD67
:103580005A469B1A013B1C9303E00526DDE7002306
:103590001C938023DB001E9A1A431E9200260023F0
:1035A0009B461D9B9E4265D29F1B02231E9A1A407A
:1035B0000A921E9A134202D0002E00D000275B46CA
:1035C000002B07D0089A099B0698079901F031F85B
:1035D00006900791002200232000290001F082F8C4
:1035E000002800D07CE03D4B1E9A134004930397C3
:1035F0001C9B0293069B079C0093019453460C9AD4
:103600004946404600F086F8002E00D183E71E9B15
:103610009B0671D54525441C5346020049462800A7
:10362000C0475A46D317D2185A4005230593013E86
:103630000496002303930A3302935B46DB0F019346
:1036400000925346220049464046FFF76EFD0A9B12
:10365000002B00D15FE7020047460C9E1D9D53E002
:103660001C9B002B9DD00D9B002B9AD01C9B013BDB
:103670001C9396E7002798E7FFFFEF7FFFFFEFFF20
:1036800001FCFFFF0000F03FFB799F501344D33F44
:10369000B3C8608B288AC63F0000F83F61436F6360
:1036A000A787D23F71A379094F930A400000E03FFA
:1036B0001655B5BBB16B0240EF39FAFE422EE63F1C
:1036C000FF03000000002C400000244000001840D0
:1036D0002D431CEBE2361A3F80842E41FFF7FFFF9B
:1036E000069C079D22002900802000068446614434
:1036F0000B000692079376E765258CE7541C53462A
:1037000049462020B8472200931BAB42F6D3100055
:1037100001E7C046F0B5DE4657464E464546E0B5A1
:1037200095B00690079193469946209F1E9A1F9B3D
:103730001000190000F0F1FF002831D1012252429F
:10374000BF4B1E981F9900F0CDFF002837D10122F2
:103750005242BC4B1E981F9900F0DAFF00283DD161
:103760000022B94B1E981F9900F0D2FF002850D1BB
:103770000022B64B1E981F9900F0B4FF002848D1D4
:10378000002200231E981F9900F0ACFF002850D1A2
:1037900000239846229B5B0500D4B6E0002458E045
:1037A000229B0393219B029303230193A84B009335
:1037B0004B465A4607990698FFF7D8FB0EE1229B25
:1037C0000393219B029304230193A24B00934B4646
:1037D0005A4607990698FFF7C9FBFFE00423229A8F
:1037E0001A4022990B4210D09B4B002A0FD0042282
:1037F0002299039121990291019200934B465A46D6
:1038000007990698FFF7B2FBE8E0944BEDE7032237
:10381000EEE7229B0493219B039302971E9B1F9C20
:10382000009301944B465A4607990698FFF762FDAC
:10383000D4E01E9A1F9B0020002100F0F0FE1E9095
:103840001F9101239846A5E70CAB30221A55013F82
:1038500001341F2C01D8092FF6D81E981F9900F0AB
:1038600087FF050000F06CFF02000B001E981F99F7
:1038700000F0D5FE7A4BFA009B181A685B680A9232
:103880000B9300F0F0FE0890099100F095FF060000
:1038900000F052FF02000B000898099900F0BFFEEB
:1038A0000890099100226F4B00F032FF00282ED0C3
:1038B0000136300000F040FF02000B000A980B991F
:1038C00000F016FF002801D001350026002F2CD172
:1038D000280000F035FF02000B001E981F9900F031
:1038E0009EFE06000F0000225E4B00F0FBFE00284B
:1038F00046D100225B4B3000390000F009FF002860
:103900003ED1EB073CD501353AE0062746E70022D9
:10391000544B0898099900F0E5FE0028D6D1002EF6
:1039200001D0F307D2D50136D0E7AA461F2C11D813
:10393000013F0A21300000F037FC651C30310CAB30
:1039400019550A21300000F02FFC092E0ED906006F
:103950002C00EBE755461F2C0CD87B1E002F09D0FE
:103960000CAA302111551F000134F4E72B005546F5
:103970001C00F0E71F2C03D80CAB2E221A55013483
:103980001F2C10D80A21280000F0E6FB661C3031FD
:103990000CAB19550A21280000F0DEFB051E01D0F2
:1039A0003400EDE734000323229A1340012B1CD08E
:1039B0001F2C06D84346002B32D00CAB2D221A55B3
:1039C0000134229B0393219B029301940CAB00933F
:1039D0004B465A4607990698FFF7C8FA15B0F0BC4F
:1039E000BB46B246A946A046F0BD219B002B13D092
:1039F0004346002B02D10C3313420FD0219B013BD5
:103A00002193190003E00CAB30221A5501348C428B
:103A1000CED21F2CF7D9CBE72199F8E72199F6E709
:103A2000229B5B0704D50CAB2B221A550134C8E747
:103A3000229B1B07C5D50CAB20221A550134C0E7C9
:103A4000FFFFEFFFFFFFEF7F65CDCD4165CDCDC11E
:103A5000608E0010648E0010548E00105C8E00107A
:103A6000089B00100000E03FF0B5DE4657464E468A
:103A70004546E0B593B082468846934611930029A7
:103A800000D10DE300255646119B1878002800D17F
:103A900009E3252809D06C1C5B462A004146B04743
:103AA000119B013311932500EEE701331193002799
:103AB00020E001231F4301321192012418E0022368
:103AC0001F4301321192012412E004231F430132EB
:103AD000119201240CE008231F43013211920124AA
:103AE00006E010231F4301321192012400E000245C
:103AF000002C09D0119A1378203BD9B21029F6D89E
:103B00008B00C849CB589F46119B1A781300303B55
:103B1000DBB2092B10D92A2A13D00B94119B1A78E7
:103B20002E2A1ED0119A1378683BD9B2122959D87F
:103B30008B00BD49CB589F4611A8FFF705FA0B90A3
:103B4000ECE71C9B1A1D1C921B68002B04DB0B93DB
:103B5000119B01331193E1E7022217435B420B9360
:103B6000F6E78022D20017435A1C11925A781300AC
:103B7000303BDBB2092B0BD92A2AD3D11C9B1A1D4F
:103B80001C921C68002C08DB119B01331193C9E7C0
:103B900011A8FFF7D9F90400C4E70024F4E7802353
:103BA0005B003B43511C119151786C2901D01F00DF
:103BB00018E0C0239B001F430232119212E08023C1
:103BC0003B43511C11915178682901D01F0009E035
:103BD000C0231F430232119204E080235B001F4385
:103BE00001321192119B1878672818D8252800D225
:103BF0004CE20300253BDAB2422A00D946E29300A8
:103C00008A4AD3589F4680239B001F43013211925A
:103C1000E8E780235B001F4301321192E2E7782836
:103C200000D933E2692800D230E20200693AD2B208
:103C3000012393407E4A134211D11A0600D500E2B7
:103C40005B0500D422E21C9B1A1D1C921B689A463D
:103C5000002C00D0B2E10122524253468EE16F287F
:103C60000ED006D858283DD0622804D102239C46A5
:103C700008E0782839D010239F43063B9C4601E09A
:103C800008239C46582833D0692803D0642801D0E3
:103C90000C2297437A0501D50122974369282AD03F
:103CA000642828D0BA0500D59FE0FA0500D5C1E008
:103CB0007A0600D4D3E01C9A111D1C911168FF22D2
:103CC0000A4005970B9B04930394634602930023D9
:103CD000019300925B462A0041463000FFF725FA27
:103CE000050027E010239C46CCE710239C46C9E73B
:103CF00020221743C8E7BA0520D4FA0550D47A0623
:103D000066D51C9A111D1C911168FF220A40D0171C
:103D10001118414005970B9B04930394634602934B
:103D2000D20F019200915B462A0041463000FFF716
:103D3000FCF90500119B01331193A5E61C9A07328B
:103D400007218A43110008311C9111685368994674
:103D5000DB170C930D930C9A0D9B100048400E90AE
:103D60004A4653400F930E980F990C9A0D9B801A58
:103D700099410E900F9108970B9B07930694634609
:103D80000493002305934B46DA0F029200900191B1
:103D90005B462A0041463000FFF725FA0500C9E7D7
:103DA0001C9A111D1C911268D017111841400597DB
:103DB0000B9B0493039463460293D20F01920091EC
:103DC0005B462A0041463000FFF7AFF90500B1E736
:103DD0003A0605D51C9A111D1C910023D25E96E768
:103DE0001C9A111D1C91126891E71C9A0732072139
:103DF0008A43110008311C9108970B9B0793069486
:103E0000634604930023059302935368126800925B
:103E100001935B462A0041463000FFF7E4F90500B4
:103E200088E7C04668990010AC990010F899001016
:103E3000419000001C9A111D1C9105970B9B049347
:103E400003946346029300230193136800935B4637
:103E50002A0041463000FFF768F905006AE73A0694
:103E600006D51C9A111D1C9112681204120C28E729
:103E70001C9A111D1C91126823E7462819D01C9B1F
:103E80000733072293431A0008321C9204970B9AB7
:103E9000039202941A685B68009201935B462A00C1
:103EA00041463000FFF736FC0500119B01331193AA
:103EB000EAE520231F43E2E7672801D0472802D123
:103EC00080231B011F43452801D0472801D120230F
:103ED0001F431C9B0733072293431A0008321C928E
:103EE00004970B9A039202941A685B6800920193FC
:103EF0005B462A0041463000FFF7FCF90500119BA4
:103F000001331193C0E502231A003A4091463B4227
:103F10001DD001241C9B1A1D1C926F1C18785B4637
:103F20002A004146B0474B46002B14D1119B013368
:103F300011933D00A8E5571C5B4641462020B04741
:103F400023003A005C1C9D42F5D81500E2E70123EE
:103F50002A000B9DF6E73A00B1460B9E06E0571C7F
:103F60005B4641462020C8472C003A00651CA6420B
:103F7000F5D817004E46D9E701330A001978002911
:103F800002D0511E002AF7D152469B1A8022D2003D
:103F9000390011408946174202D0A34200D92300BC
:103FA00002221100394010913A4209D02A0025001E
:103FB00057469A4633004E46994621E022004CE689
:103FC0002A004546A04606E0541C5B4629002020F6
:103FD000B0473B0022005F1C0B999942F4D844463D
:103FE000A8463B00250057469A4633004E46994660
:103FF00006E01D000137541C5B464146C8472200BD
:104000003878002804D0002EF4D06B1E002DF0D19B
:10401000150053464E46109A002A03D1119B0133D6
:10402000119331E50B9F2A0006E0551C5B46414683
:104030002020B04723002A005C1C9F42F5D81500C1
:10404000ECE721233B431C9A111D1C911268059338
:1040500008230493039408330293002301930092EE
:104060005B462A0041463000FFF75FF80500119BD0
:104070000133119308E56C1C5B462A00414625205C
:10408000B047119B013311932500FDE46C1C5B4686
:104090002A004146B047119B013311932500F3E4F8
:1040A0000A4B9A46EEE4B2465D450DD35B465A1E76
:1040B0005B4641460020D047280013B0F0BCBB4609
:1040C000B246A946A046F0BD2A00F1E7392F0010FC
:1040D00000B585B0029003910121044800931300BC
:1040E0004A4202A9FFF7C0FC05B000BD3B2F0010FB
:1040F00001480421014B1847E00B0020214100102A
:1041000010B5010018231B8814221088984710BD91
:1041100010B5010018231B8816221088984710BD7F
:10412000F0B5C64600B507000E00002501239846ED
:1041300000E00135B5420AD2AC003C192068FFF717
:10414000DFFF20600028F4D100239846F1E74046C5
:1041500080BCB846F0BD0000124A936F9B0815D290
:104160009066D166002905D0FFE7FFE7FFE7516FB2
:10417000106F704704B580210906C217514000280E
:1041800000D0C84304F004F9002104BDF0B5146E5A
:10419000556E576F166FFFF7E3FF14665566576746
:1041A0001667F0BD000000D0114A936F9B0813D230
:1041B00010665166002905D0FFE7FFE7FFE7516F62
:1041C000106F704704B5002801D00020C04304F0F0
:1041D000DFF8002104BDC046F0B5146E556E576F70
:1041E000166FFFF7E5FF1466556657671667F0BD53
:1041F000000000D094464A4A926F9208624601D26B
:1042000028E0C046F0B5464E346E756E776F366F57
:1042100000F020F89446424A1466556657671667C0
:104220006246F0BD94463E4A926F9208624601D2C1
:1042300054E0C046F0B53A4E346E756E776F366F07
:1042400000F04CF89446364A146655665767166770
:104250006246F0BD002B24DB11D000293EDA00B508
:10426000C943404200D1013100F038F8C94340420F
:1042700000D10131DB43524200D1013300BD002A9D
:10428000EBD1002801D1002905D00020C90FC907B2
:1042900001D1C043410800B504F072F800220023A8
:1042A00000BD00B500290ADBDB43524200D10133D7
:1042B00000F014F8C943404200D1013100BDC943A8
:1042C000404200D10131DB43524200D1013300F0C2
:1042D00005F8DB43524200D1013300BD002923D150
:1042E000002B18D1002A0CD0BC460D4F38667A66D8
:1042F00000210023FFE7FFE7FFE77A6F386F67468B
:104300007047002801D00748010000B504F038F8D4
:104310000022002300BD02000B0000200021704796
:10432000000000D0FFFFFFFF002B00D0BFE0130C08
:1043300028D1002AE7D080B4114F39667A66FFE7AA
:10434000FFE730B4040C7B6F396F1B0423433B66DB
:104350007A66FFE7FFE7FFE7C04684B27B6F3D6FF9
:104360001B0423433B667A66FFE7FFE7C046002352
:104370002C042D0C7A6F386F00196941B0BC70475E
:10438000000000D0F0B594460025140E01D11202B1
:104390000835140F01D112010435940F01D1920098
:1043A0000235D40F01D152000135D40B0134254F11
:1043B0007C66254C3C660E0C93B2FFE7FFE7FFE7F7
:1043C0003C6F6643360C7703BE467343DF0B5B04DA
:1043D000C01AB941130C7343DB18C91ACE086643DF
:1043E000360CB64493B273431F0F1B01C01AB94178
:1043F000130C73431F0B1B05C01AB941860D8F02A6
:104400003E436643360C092D24DB520A7243801A60
:104410007703460A6643360C16235B1BDE40DF40FB
:10442000BF1964466643821B70460435063301009B
:10443000D940A840C01900D30131A24206D20023BE
:10444000F0BD0000000000D0FFFFFFFF121B013095
:10445000F3D3F1E709277F1BFE406446A2B2724303
:10446000801A00D20139220C7243130C1204821AF2
:1044700099410B007046043513370100F940A840FC
:10448000801900D30131002B02D1A2420AD2F0BD23
:10449000013000D30131121BFAD2013BF8D1A24204
:1044A00000D2F0BD013000D30131121BF7E7F0B5A7
:1044B0001C0C00D080E00CB400251C0A04D11B02A7
:1044C000160E3343120208351C0B04D11B01160FC4
:1044D0003343120104359C0B04D19B00960F3343E8
:1044E00092000235DC0B02D192185B4101351C00B1
:1044F000971864410134464F7C66464C3C660E0C6E
:10450000FFE7FFE7FFE7C0463C6F6643360C7703E3
:10451000BE4697B27743C01B00D20139C01B00D200
:1045200001399FB27743C91BC91B170C77437E041F
:10453000FF0B801BB941CE086643360C0C2D33DBD4
:10454000B644120B1F053A431B0B97B27743C01BAF
:1045500000D201399FB27743C91B170C77433E0441
:104560003F0C801BB941860D8F023E4366432927CD
:104570007F1BFE400C3D7746AF40BF1930BCA2B256
:10458000ABB272437343801A9941220C7243130CED
:104590001204801A994102000B000137001BA94147
:1045A000F9D2781E0021F0BD0C277F1BFE40774614
:1045B0007F0BAF40FF19E0E700245D1C07D0144FCC
:1045C0007D663966FFE7FFE7FFE7FFE73C6F95B2DF
:1045D0009EB265436643401BB141150C1E0C6543FA
:1045E000664336042F0C3E432D04401BB1419942D3
:1045F00004D202000B0020000021F0BD01D1904246
:10460000F7D3801A994101349942F2D3F6E70000BA
:10461000000000D0FFFFFFFF48404140484018B471
:10462000134B5B68019308BD18B4114B1B680193D1
:1046300008BD94460F4A926F920805D2624618B49C
:104640000B4BDB68019308BD0A4AF0B5146E556E3A
:10465000576F166F6246FFF7F2FF064A14665566FB
:1046600057671667F0BD18B4014B9B68019308BDEE
:10467000EC1E0020000000D0FFB5504042405040EA
:1046800059404B40594000E0FFB5154F4C00640DB8
:1046900003D0BC4204D10C0314D80020090D090535
:1046A0005C00640D03D0BC4204D11C030AD8002274
:1046B0001B0D1B0501264B4009D44B4003D58B42F3
:1046C00000D18242FFBD9942FCD19042FFBD0B4315
:1046D000DB1803431343F5D0C9434918FFBD00005D
:1046E000FF07000000B5FFF7CFFF804100BDC046C7
:1046F00000B5FFF7C9FF01D9002000BD012000BDB2
:1047000000B5FFF7B9FF01D9002000BD012000BDB1
:1047100000B5FFF7B1FF804100BD012040054A0010
:10472000121804D85A00121801D80020704701202E
:1047300070470020704700000021002805D1704715
:10474000C1174840401AFAD0C90713B5064B1B6879
:1047500098470CBC441CA2401005120B0349091BCE
:1047600009051943114310BDEC1F00201F04000070
:1047700010B54C00620D8023D218DB00D21A5B0505
:104780007E2A10DD9E3A13DACC1709034908194333
:104790005242D140640001341532202A05DAD0405B
:1047A0000843604310BD002010BD0846604310BDA3
:1047B000C80FC018013810BD18B4024B5B6A0193D2
:1047C00008BD0000EC1E002018B4024BDB6F019303
:1047D00008BD0000EC1E002010B50148FEF794FB58
:1047E0006C8E001070B513231C78012C12D0012C94
:1047F00012DC214B214A93642148FFF781FC214BB5
:10480000186070BD20491D4A9800815001331F2B4C
:10481000F8D9ECE70023FAE71C48FFF779FC05001C
:104820001B48FFF775FC023803789B007F2B09DDDE
:1048300012488022290000F039F9022C08D0022CFD
:10484000DADCD6E7134B144A14483221FEF7C4FAD7
:10485000134B1A88B5231B029A4209D1114B1A88AF
:10486000114B9A4204D1114B1A88114B9A42E6D04F
:104870000020FEF749FBC046B5480010EC1E0020A2
:104880004C330000EC1F0020D947001053440000B7
:1048900053460000848E0010589B0010D88E0010E4
:1048A00054380000D8380000494600009C38000009
:1048B0005946000007B56046002800D100BE0188B7
:1048C0000A0A0230DF2AFAD1C9B2820804D3028868
:1048D00040880004104300E00068024A50500390F2
:1048E00007BD0000EC1E002051434343C9188C460D
:1048F000110C83B24B4310B4040C614392B280B2EA
:10490000504362431C041B0C001910BC5941130492
:10491000120CC018514161447047000048404140AA
:1049200048400E4B5B6818470C4B1B6818470C4AF5
:10493000936F9B0802D2094BDB681847F0B5146EE1
:10494000556E576F166FFFF7F6FF054A14665566EA
:1049500057671667F0BD014B9B681847F01F002092
:10496000000000D0491A002808D10846704700000E
:10497000C10FC90700D54042002817D0F44603B440
:104980000B4B1B68984706BC81409E3840428031E3
:1049900007D20B0607D04900490AC0051043084357
:1049A00060470130F8E7490A8902F5E770470000DF
:1049B000EC1F0020014B5B6A18470000F01F00202D
:1049C00010B50148FEF7A0FAAC84001070B51323AF
:1049D0001E781848FFF79CFB0500012E11D0012E10
:1049E00009DDAB1E1B789B007F2B1DDD124880224A
:1049F000290000F05BF81148FFF782FB104B1860AC
:104A000070BD0D485422290000F050F8002300E04A
:104A100001331F2BE3D8084A9C00A258002AF7D183
:104A20000849054AA150F3E7074B084A08484221C4
:104A3000FEF7D2F953460000F01F00204C3300006F
:104A4000EC1F0020C1490010348F00106C9B001037
:104A5000688F001010B5002804D04018034B98420E
:104A600000D810BD0248FEF74FFAC04600000420EF
:104A7000C48F001070B5050002F0C4FF04002900C7
:104A8000FFF7E8FF200070BD10B502F0C5FF10BDB4
:104A900001480421014B1847F00B00202141001070
:104AA000014B1B6818470000F00B0020014B5B68AE
:104AB00018470000F00B002010B50300080011009B
:104AC0001B68984710BD0000F8B507000D001600E0
:104AD000437D002B02D0002400200CE0036811006D
:104AE000280098472DE03B7D10E03B6815480221E7
:104AF0009847601C0134B44214DA002CF3DD2B1902
:104B0000013B1B780D3B5A425341DBB22A5D0A2A16
:104B1000F0D1002BEED1A042E7DA3B68211A281829
:104B20009847E2E7B04203DA3B68311A2818984701
:104B3000002E06DDAD19013D2B780D3B5A42534145
:104B40003B75F8BDB09B001070B505000368002BE5
:104B500016D00C4B1C6805E0290004C92000FFF7A3
:104B6000B3FF2469002C09D02368002BF9D0064B31
:104B70001B68002BF0D0A342F3D1EDE700232B609C
:104B800070BDC046401A00204C1A002070B50500C8
:104B90000C000B68802B05D023685A1C2260E41897
:104BA000257170BD0800FFF7CFFFF5E710B5002BAA
:104BB00002DB0260436010BD024B034A03483F2101
:104BC000FEF70AF930840010B49B00104C840010EA
:104BD00010B582B00400FDF74BFC02000B006846E4
:104BE000FFF7E4FF009A019B22606360200002B09F
:104BF00010BD000070B582B0060014001D00FA223E
:104C00009200002306980021FFF76EFE02000B00C1
:104C100012196B41002B09DB6846FFF7C7FF009AAA
:104C2000019B32607360300002B070BD01225242BD
:104C3000004BF1E7FFFFFF7F30B585B004000D00AA
:104C400002A8FFF7C5FF029A039B00952000FFF71B
:104C5000D1FF200005B030BD00B583B0FA21890036
:104C60006846FFF7E9FF009A019B024803F0B8FB92
:104C700003B000BDA811002010B5024803F078FB76
:104C800010BDC046A8110020F0B5CE46474680B5FD
:104C900083B006000D0090461C00FFF7DDFF814643
:104CA0006B1C05D0002C08D0194F1A4B1C6807E06C
:104CB000300003F0D7F90500F4E7174FF5E7246952
:104CC000002C17D02368002BF9D0144B1B68002B45
:104CD00001D0A342F3D12A0031002000B847434657
:104CE000002BECD06B46D91D0A230B70012220004B
:104CF000B847E4E74B46002B07D16B1E9D41E8B255
:104D000003B0C0BCB946B046F0BDFFF7B5FFF4E74D
:104D1000B94A0010401A0020C94A00104C1A00205D
:104D2000094A01E010331A001368002B08D08342AF
:104D3000F8D1002907D1036913600023036102E061
:104D4000002900D010607047401A002010B5064BB3
:104D50001C6801E098472469002C03D06368002B8D
:104D6000F8D1F8E710BDC046401A002070B5050024
:104D700003F078F904000023012201002800FFF766
:104D800083FFFFF7E3FF200070BD000070B5A2B005
:104D900004000E00FFF760FF0500002301930A489E
:104DA0003300220001A9FFF793F9040001A8FFF7DF
:104DB000CBFEFFF7CBFF002D02D1200022B070BD4B
:104DC000FFF75AFFF9E7C0468D4B00100FB400B54E
:104DD00083B004A901C90191FFF7D8FF03B008BC53
:104DE00004B0184710B500F0AFF910BD70470000CF
:104DF000014B00221A7070472F2100204B79FF2BA6
:104E00000CD18B79002B0BD1CB79012B0AD1082A3D
:104E10000AD98A78054B1A70092000E000207047F3
:104E20000020FCE70020FAE70020F8E72F2100200F
:104E30000120704770B504000D000348FFF760F9CA
:104E400003002900200098475542000010B50129B1
:104E500026D1117953791B020B43124909788B42F1
:104E600001D000201DE05378012B03D0022B10D07D
:104E7000002016E09178D3781B021943DB0506D594
:104E80004B0A012098407F231940FFF7D3FF0020F1
:104E9000F9E7642200210020FDF744FF012000E033
:104EA000012010BD2F21002001230370004870470E
:104EB000CC9B001010B50A784B781B0213438A78FC
:104EC00012041A43CB781B0613439622D200934256
:104ED00000D010BD00210800FFF7ACFF024B1860A6
:104EE000024B19607047C046A4190020A819002081
:104EF00010B5002B02DB0260436010BD024B034A79
:104F000003483F21FDF768FF30840010009C00102B
:104F10004C84001010B582B00400FDF7A9FA02001D
:104F20000B006846FFF7E4FF009A019B2260636074
:104F3000200002B010BD000070B582B00600140061
:104F40001D00FA229200002306980021FFF7CCFCF6
:104F500002000B0012196B41002B09DB6846FFF7BA
:104F6000C7FF009A019B32607360300002B070BDD1
:104F700001225242004BF1E7FFFFFF7F30B585B0C1
:104F800004000D0002A8FFF7C5FF029A039B0095DD
:104F90002000FFF7D1FF200005B030BD10B582B072
:104FA00004000498059912184B41002B09DB684650
:104FB000FFF79EFF009A019B22606360200002B011
:104FC00010BD01225242014BF1E7C046FFFFFF7FB7
:104FD00010B5024B1878FCF7DBF910BD302100202A
:104FE0000268EFF3108172B61368002BFCD0BFF398
:104FF0005F8F41607047000070B50F4B1B68002B3E
:1050000016D00D4C2000FFF7EBFF0C4B00221A705E
:1050100021686368BFF35F8F0A6083F31088002400
:105020000025074B1878FCF7B3F92000290070BD64
:10503000FA24A4000025F4E7C41E0020312100203A
:1050400030210020F0B587B0040016001D000EAB23
:105050001F7804A8FFF75EFF049A059B0096019550
:1050600004A8FFF79BFF049A059B02970D990191F5
:105070000C9900912000FDF71BF807B0F0BDF0B5CA
:10508000C64600B584B00500884616001F000AAB6E
:105090001C78FCF7F7FF0294019700962A0043461C
:1050A000FFF7D0FF04B080BCB846F0BD10B582B0A9
:1050B0001948002103F074F9002822D1174B1B680E
:1050C000002B26D0154C2000FFF78AFF144A1378D6
:1050D00001214B40DBB20121117021686268BFF3EE
:1050E0005F8F0020086082F31088002B11D00D4ADA
:1050F000012300930023FA2080000021FFF7BFFF67
:1051000007E001200021404201F08CF8024803F042
:105110002FF902B010BDC046F8200020C41E0020A8
:1051200031210020F94F001010B5054B18680028F8
:1051300004D0044B1968002200F09EFD10BDC0464B
:10514000A4190020A819002010B582B0D0231B0696
:105150001C68FCF797FFFDF7A5F8A0422CD1234B64
:105160001B7801F02DFD2248FCF723FC0120FCF701
:10517000ADFB204C20702049FF231840FCF72AF992
:1051800020780121FCF7FCF80520FCF711F9041E3A
:1051900018D01A4900220520FCF746F9FCF744F81C
:1051A0000100174B1800FCF721FC16480121FFF7FE
:1051B000B7FD200002B010BD134B144A1448B221B1
:1051C000FDF70AFE134A012300930023FA20800012
:1051D0000021FFF754FFC443E40F094808220021CF
:1051E000FFF75EFC002CE4D0DFE7C046349F0010E0
:1051F000F820002030210020AD500010D14F0010C9
:10520000C41E0020000C002014870010F09B00102A
:1052100018900010F94F001010B5002001F0FAF9B5
:1052200010BD000030B583B004000D00FFF7F4FF9F
:10523000002830D0002001F009FA00282ED0FA21F1
:1052400089006846FFF79AFE009A019B164803F012
:10525000C7F8002825D0FFF7DFFF002804D0002082
:1052600001F0F4F900280CD101200021404200F0A7
:10527000D9FF032464420C4803F07AF8200003B0FD
:1052800030BD2A002100002001F0ECF9041EF2D10B
:1052900003246442EFE703246442EFE703246442FB
:1052A000ECE703246442E9E7F8200020F0B5C646A5
:1052B00000B582B080460D00FA2189006846FFF7EC
:1052C0005DFE009A019B2C4803F08AF8002803D168
:1052D00002B080BCB846F0BDFFF79EFF002849D160
:1052E000264B0020002118605960234803F040F845
:1052F000EEE701200021404200F094FF002001F081
:10530000C5F9FFF789FF0028EFD0002001F036FA39
:10531000002820D0AC42E8DA2E1B002001F02EFA43
:105320000200864200DC3200002AE2D0434619190E
:10533000002001F007FA060001200021404200F0A1
:1053400071FF002001F0A2F9A419FDF791F80B4BB1
:1053500018605960DEE7FDF78BF8084B1E685F6840
:10536000074A002392197B419942BED8D2D190427C
:10537000D0D9BAE70024CDE7F8200020C8120020D9
:1053800020A1070000487047849C00100048704727
:10539000309C001010B50400154B1B78002B0ED06C
:1053A000002C11D1134B144A5A80012301335B00A6
:1053B0009BB21048C02292001343038010BD0C48DA
:1053C000112100F025F8EBE7052C0ED80B4BA400BB
:1053D000E4580023122BE9D8E15C0029E6D0013320
:1053E000044A58008152DBB2F4E70020E6E7C046E9
:1053F00018210020181A002009040000189C001031
:1054000010B5024800F032F810BDC046E41E00207E
:1054100010B5002901D000230AE0104B104A1148B2
:105420001F31FDF7D9FC00220DE03732C2540133A1
:105430004A1E9A420ED90F2B0CD85A080A4CA45C6B
:10544000DA07F0D4042214410F222240092AECDCAE
:105450003032EBE7C0180023037010BDB09000108D
:10546000989C0010B8900010E41E002030B589B060
:10547000040004AD0D2200212800FFF711FB0D22CE
:1054800000216846FFF70CFB4B232B700D22694669
:10549000280002F065FF002304E05A1D69468A5C7B
:1054A000E2540133072BF8DD09B030BD02007F2044
:1054B0001040D209400080184001014BC0187047CD
:1054C000541A002010B5038B3F333F229343022927
:1054D00015D0124C2268C260D31823609C0610D1EC
:1054E0000F4C6240634080246401A3420FD88906B8
:1054F000114380231B060B434268136010BD5B0001
:10550000E7E7084B084A09485421FDF765FC084BBA
:10551000054A06485621FDF75FFCC046A41E002040
:10552000000010507C920010089D0010AC920010FA
:1055300014930010F8B505000E001400FFF7B6FF35
:105540007F232B40EF0985707A427A414270002216
:10555000C2700683C476012F0DD0DA0012498C4642
:1055600062448260826800211160002B09D143608F
:105570000E4BC360F8BDDA000D498C466244826070
:10558000F0E7012F09D0013BDB000A4A944663444F
:1055900043602100FFF796FFECE7013BDB00064A82
:1055A000944663444360F4E78400105000011050B7
:1055B000800010500C0010500800105070B584B0DE
:1055C00006000D0014000C22002101A8FFF768FA64
:1055D0006B461E7103236A4653710295210001A890
:1055E00002F0F6FE04B070BD70B50C001500FFF7B8
:1055F0005DFF2A00210000F00DF970BD10B50028F4
:1056000004D101210520FBF7BBFE10BD034B044A6A
:10561000D52104484900FDF7DFFBC0465C9300102C
:10562000F89C0010AC92001010B5002805D10022A3
:1056300000218020FFF7D8FF10BD034B034ADB2178
:1056400003484900FDF7C8FB5C930010E89C00107C
:10565000AC920010024B80225202DA647047C046BE
:105660000020115070B5041E26D100F0ADF8164D83
:105670000C23AB671549FF220520FBF7D5FE144824
:1056800040220021FFF70CFA002240210020FFF702
:1056900051FF002240218020FFF74CFF02F088FEDE
:1056A00001232B6480239B05EB649023094AEA5075
:1056B0002000FFF7CFFF70BD074B084A862108483E
:1056C000FF31FDF789FBC046000011505104002056
:1056D000541A002010D001005C9300101C9D001093
:1056E000AC9200100B785B0602D14B78052B00D0F2
:1056F00070478A78014B1A60FAE7C04600001150E3
:1057000010B50A0000280DD18878097953791B0259
:105710000B435B05590DD2789207920FFFF70AFFF2
:10572000012010BD034B044AFC210448FF31FDF762
:1057300053FBC0465C930010D89C0010AC92001044
:1057400010B502F035FE10BD10B5040008001100C0
:105750001A00002C03D1FFF747FF012010BD034BB7
:10576000034A04480449FDF737FBC0465C93001028
:10577000C89C0010AC9200100A02000010B508008E
:105780004B0605D1CB09012B0AD00222054B9A66A4
:10579000FFF78CFE80221201002102F041FE10BDB5
:1057A0000122F3E70020115010B508004B0600D18C
:1057B00010BDFFF77BFE0023C3700022014902F0F9
:1057C0002FFEF5E7FFF7FFFF10B580235B040C4ABF
:1057D00013600C4A13600C4B9A6880235B0493435C
:1057E000F9D10A4C9C2200212000FFF759F98022B0
:1057F000520100210648FFF753F90923636710BDE2
:1058000000E0004000F0004000C0004000001150E7
:105810000000105070B504000D001600837E002BB0
:1058200017D1A6820023E3820133A37625612000ED
:1058300002F0E6FD002804D0094A90238021890265
:10584000D150200002F084FD002805D001232377E9
:1058500070BD02F0DDFDE4E7200002F0C9FDF7E7CE
:105860000020115070B5050000240CE062001219F0
:10587000D200184B1B689B18002B2AD05B682800AD
:1058800098470134E4B2144B1B78A34210D3134A57
:10589000002A0BD0A342E9D8E31ADBB2002B18D1BF
:1058A0005A00D318DB000E4A9B18E7E72300F5E700
:1058B0000C4C532200212000FFF7F2F8E01C1022CC
:1058C000FF21FFF7EDF8200013302022FF21FFF722
:1058D000E7F870BD4014002029210020A94E0010D7
:1058E000C49D0010681700200268EFF3108172B6A3
:1058F0001368002BFCD0BFF35F8F4160704710B579
:10590000FFF7B0FF00F0E4FD10BD70B505000C001E
:105910001600C86800F0E6FDE368320001212800A7
:10592000984770BDF0B5DE4657464E46C0B582B0CA
:1059300000900139C8B2FFF729FD002800D18EE0A0
:1059400043789A46022B00D08BE0C5796C11012276
:105950004A4B1440240119781026B1432143197091
:10596000AD112A405201C9B22024A1430A431A7042
:10597000070009378278C3781B021343C418A74273
:1059800066D27B780B2B09D001239B467B78042BB6
:105990006ED1E31B9BB29946002538E0FB789B460D
:1059A0003B78FF18F2E76B005B19DB00344A16689E
:1059B000F618002E3DD1002054E02B0032E0B268F2
:1059C000304B9A4242D1D34640E02C49CB18DD708F
:1059D0000132D2B2934509D9BB789B18DBB2274973
:1059E000C918C978FF29F0D000203BE026482B00D9
:1059F000019E3200390001F06FF9B4466744234B31
:105A00001B78AB42BBD200202CE00135EDB21F4B1E
:105A10001B78AB42F3D31E4A002ACED0AB42C2D889
:105A2000EB1ADBB2002B25D15E00F618F600194BFD
:105A3000F618B3684A46390000989847019008283C
:105A4000E3D98145E1D35B46012BB8D00022C1E701
:105A5000114B002B10D000E000BF012002E000201D
:105A600000E0002002B0E0BCBB46B246A946F0BD53
:105A70000020F7E70020F5E70120F3E76817002092
:105A800040140020996800107B1700202921002075
:105A9000A94E0010C49D00100000000070B5050064
:105AA0000C00CB7888780F2B50D89A002E498A5852
:105AB0009746FFF767FC020012232100280000F040
:105AC000D3FC44E0294B002B42D000E000BF021E73
:105AD00040D08178C3781B020B432100280000F0DE
